:020000001628C0
:0E0006008312031321088A00200882000800DC
:1000140003208A110A128000840AA00A0319A10A83
:08002400F003031D0A28080087
:10002C008316031788018901860103138701880150
:10003C0089011030831286001130870088018901F4
:10004C00C330FC00CD30FD00FD0B2A28FC0B2A2808
:10005C00843086001030870088018901C330FC0091
:10006C00CD30FD00FD0B3828FC0B382841308600C4
:10007C001030870088018901C330FC00CD30FD00B1
:10008C00FD0B4628FC0B462886011C308700880196
:10009C008901C330FC00CD30FD00FD0B5328FC0B57
:1000AC005328860110308700443088008901C33002
:1000BC00FC00CD30FD00FD0B6128FC0B6128860196
:1000CC00103087000830880001308900C330FC00F4
:1000DC00CD30FD00FD0B7028FC0B70288601103014
:1000EC0087001030880004308900C330FC00CD300C
:1000FC00FD00FD0B7F28FC0B7F288601303087002C
:10010C00013088008901C330FC00CD30FD00FD0BAF
:0A011C008D28FC0B8D281F28922867
:04400E00D2230007B2
:00000001FF
